{
  "contractName": "EasyVote",
  "abi": [
    {
      "inputs": [
        {
          "internalType": "address",
          "name": "trustedForwarder",
          "type": "address"
        }
      ],
      "stateMutability": "nonpayable",
      "type": "constructor"
    },
    {
      "inputs": [
        {
          "internalType": "address",
          "name": "forwarder",
          "type": "address"
        }
      ],
      "name": "isTrustedForwarder",
      "outputs": [
        {
          "internalType": "bool",
          "name": "",
          "type": "bool"
        }
      ],
      "stateMutability": "view",
      "type": "function",
      "constant": true
    },
    {
      "inputs": [],
      "name": "trustedForwarder",
      "outputs": [
        {
          "internalType": "address",
          "name": "",
          "type": "address"
        }
      ],
      "stateMutability": "view",
      "type": "function",
      "constant": true
    },
    {
      "inputs": [
        {
          "internalType": "uint256",
          "name": "",
          "type": "uint256"
        },
        {
          "internalType": "uint256",
          "name": "",
          "type": "uint256"
        }
      ],
      "name": "votos",
      "outputs": [
        {
          "internalType": "uint256",
          "name": "votante",
          "type": "uint256"
        },
        {
          "internalType": "uint256",
          "name": "procesoElectoral",
          "type": "uint256"
        }
      ],
      "stateMutability": "view",
      "type": "function",
      "constant": true
    },
    {
      "inputs": [
        {
          "internalType": "uint256",
          "name": "",
          "type": "uint256"
        }
      ],
      "name": "votosEnBlanco",
      "outputs": [
        {
          "internalType": "uint256",
          "name": "",
          "type": "uint256"
        }
      ],
      "stateMutability": "view",
      "type": "function",
      "constant": true
    },
    {
      "inputs": [
        {
          "internalType": "uint256",
          "name": "",
          "type": "uint256"
        }
      ],
      "name": "votosNulos",
      "outputs": [
        {
          "internalType": "uint256",
          "name": "",
          "type": "uint256"
        }
      ],
      "stateMutability": "view",
      "type": "function",
      "constant": true
    },
    {
      "inputs": [
        {
          "internalType": "uint256",
          "name": "",
          "type": "uint256"
        },
        {
          "internalType": "uint256",
          "name": "",
          "type": "uint256"
        }
      ],
      "name": "votosPorCandidato",
      "outputs": [
        {
          "internalType": "uint256",
          "name": "",
          "type": "uint256"
        }
      ],
      "stateMutability": "view",
      "type": "function",
      "constant": true
    },
    {
      "inputs": [
        {
          "internalType": "uint256",
          "name": "_votante",
          "type": "uint256"
        },
        {
          "internalType": "uint256[]",
          "name": "_candidatos",
          "type": "uint256[]"
        },
        {
          "internalType": "uint256",
          "name": "_procesoElectoral",
          "type": "uint256"
        }
      ],
      "name": "registrarVoto",
      "outputs": [],
      "stateMutability": "nonpayable",
      "type": "function"
    },
    {
      "inputs": [
        {
          "internalType": "uint256",
          "name": "_procesoElectoral",
          "type": "uint256"
        },
        {
          "internalType": "uint256",
          "name": "_candidato",
          "type": "uint256"
        }
      ],
      "name": "obtenerVotosPorCandidato",
      "outputs": [
        {
          "internalType": "uint256",
          "name": "",
          "type": "uint256"
        }
      ],
      "stateMutability": "view",
      "type": "function",
      "constant": true
    },
    {
      "inputs": [
        {
          "internalType": "uint256",
          "name": "_procesoElectoral",
          "type": "uint256"
        }
      ],
      "name": "obtenerVotosEnBlanco",
      "outputs": [
        {
          "internalType": "uint256",
          "name": "",
          "type": "uint256"
        }
      ],
      "stateMutability": "view",
      "type": "function",
      "constant": true
    },
    {
      "inputs": [
        {
          "internalType": "uint256",
          "name": "_procesoElectoral",
          "type": "uint256"
        }
      ],
      "name": "obtenerVotosNulos",
      "outputs": [
        {
          "internalType": "uint256",
          "name": "",
          "type": "uint256"
        }
      ],
      "stateMutability": "view",
      "type": "function",
      "constant": true
    },
    {
      "inputs": [
        {
          "internalType": "uint256",
          "name": "_procesoElectoral",
          "type": "uint256"
        }
      ],
      "name": "obtenerResultadoProcesoElectoral",
      "outputs": [
        {
          "components": [
            {
              "components": [
                {
                  "internalType": "uint256",
                  "name": "candidato",
                  "type": "uint256"
                },
                {
                  "internalType": "uint256",
                  "name": "votos",
                  "type": "uint256"
                }
              ],
              "internalType": "struct EasyVote.CandidatoVotos[]",
              "name": "candidatosVotos",
              "type": "tuple[]"
            },
            {
              "internalType": "uint256",
              "name": "votosEnBlanco",
              "type": "uint256"
            },
            {
              "internalType": "uint256",
              "name": "votosNulos",
              "type": "uint256"
            }
          ],
          "internalType": "struct EasyVote.ResultadoProcesoElectoral",
          "name": "",
          "type": "tuple"
        }
      ],
      "stateMutability": "view",
      "type": "function",
      "constant": true
    }
  ],
  "bytecode": "0x60a060405234801561001057600080fd5b50604051610ee9380380610ee9833981810160405281019061003291906100d1565b808073ffffffffffffffffffffffffffffffffffffffff1660808173ffffffffffffffffffffffffffffffffffffffff168152505050506100fe565b600080fd5b600073ffffffffffffffffffffffffffffffffffffffff82169050919050565b600061009e82610073565b9050919050565b6100ae81610093565b81146100b957600080fd5b50565b6000815190506100cb816100a5565b92915050565b6000602082840312156100e7576100e661006e565b5b60006100f5848285016100bc565b91505092915050565b608051610dd061011960003960006103670152610dd06000f3fe608060405234801561001057600080fd5b50600436106100a95760003560e01c80637da0a877116100715780637da0a8771461019f5780639f95e4b2146101bd578063a50f33b5146101ed578063c2ee04811461021d578063e8c6e2c41461024d578063fc2c3b891461027d576100a9565b80631dd57457146100ae5780632221a413146100de5780634fd466fc1461010e578063572b6c051461013e578063574de2fe1461016e575b600080fd5b6100c860048036038101906100c391906107ee565b610299565b6040516100d5919061082a565b60405180910390f35b6100f860048036038101906100f391906107ee565b6102b1565b604051610105919061082a565b60405180910390f35b61012860048036038101906101239190610845565b6102ce565b604051610135919061082a565b60405180910390f35b610158600480360381019061015391906108e3565b6102f3565b604051610165919061092b565b60405180910390f35b61018860048036038101906101839190610845565b610332565b604051610196929190610946565b60405180910390f35b6101a7610363565b6040516101b4919061097e565b60405180910390f35b6101d760048036038101906101d291906107ee565b61038b565b6040516101e49190610ad6565b60405180910390f35b610207600480360381019061020291906107ee565b610549565b604051610214919061082a565b60405180910390f35b610237600480360381019061023291906107ee565b610561565b604051610244919061082a565b60405180910390f35b61026760048036038101906102629190610845565b61057e565b604051610274919061082a565b60405180910390f35b61029760048036038101906102929190610c51565b6105ad565b005b60036020528060005260406000206000915090505481565b600060026000838152602001908152602001600020549050919050565b6001602052816000526040600020602052806000526040600020600091509150505481565b60006102fd610363565b73ffffffffffffffffffffffffffffffffffffffff168273ffffffffffffffffffffffffffffffffffffffff16149050919050565b6000602052816000526040600020602052806000526040600020600091509150508060000154908060020154905082565b60007f0000000000000000000000000000000000000000000000000000000000000000905090565b6103936106ff565b60606000805b6101008110156103f25760006001600087815260200190815260200160002060008381526020019081526020016000205411156103df5781806103db90610cef565b9250505b80806103ea90610cef565b915050610399565b508067ffffffffffffffff81111561040d5761040c610b0e565b5b60405190808252806020026020018201604052801561044657816020015b610433610720565b81526020019060019003908161042b5790505b5091506000805b6101008110156104fd5760006001600088815260200190815260200160002060008381526020019081526020016000205411156104ea576040518060400160405280828152602001600160008981526020019081526020016000206000848152602001908152602001600020548152508483815181106104d0576104cf610d37565b5b602002602001018190525081806104e690610cef565b9250505b80806104f590610cef565b91505061044d565b5060405180606001604052808481526020016002600088815260200190815260200160002054815260200160036000888152602001908152602001600020548152509350505050919050565b60026020528060005260406000206000915090505481565b600060036000838152602001908152602001600020549050919050565b600060016000848152602001908152602001600020600083815260200190815260200160002054905092915050565b6105b88383836105bd565b505050565b604051806060016040528084815260200183815260200182815250600080858152602001908152602001600020600083815260200190815260200160002060008201518160000155602082015181600101908051906020019061062192919061073a565b5060408201518160020155905050600082510361066857600160026000838152602001908152602001600020600082825461065c9190610d66565b925050819055506106fa565b6001825111156106a25760016003600083815260200190815260200160002060008282546106969190610d66565b925050819055506106f9565b60018060008381526020019081526020016000206000846000815181106106cc576106cb610d37565b5b6020026020010151815260200190815260200160002060008282546106f19190610d66565b925050819055505b5b505050565b60405180606001604052806060815260200160008152602001600081525090565b604051806040016040528060008152602001600081525090565b828054828255906000526020600020908101928215610776579160200282015b8281111561077557825182559160200191906001019061075a565b5b5090506107839190610787565b5090565b5b808211156107a0576000816000905550600101610788565b5090565b6000604051905090565b600080fd5b600080fd5b6000819050919050565b6107cb816107b8565b81146107d657600080fd5b50565b6000813590506107e8816107c2565b92915050565b600060208284031215610804576108036107ae565b5b6000610812848285016107d9565b91505092915050565b610824816107b8565b82525050565b600060208201905061083f600083018461081b565b92915050565b6000806040838503121561085c5761085b6107ae565b5b600061086a858286016107d9565b925050602061087b858286016107d9565b9150509250929050565b600073ffffffffffffffffffffffffffffffffffffffff82169050919050565b60006108b082610885565b9050919050565b6108c0816108a5565b81146108cb57600080fd5b50565b6000813590506108dd816108b7565b92915050565b6000602082840312156108f9576108f86107ae565b5b6000610907848285016108ce565b91505092915050565b60008115159050919050565b61092581610910565b82525050565b6000602082019050610940600083018461091c565b92915050565b600060408201905061095b600083018561081b565b610968602083018461081b565b9392505050565b610978816108a5565b82525050565b6000602082019050610993600083018461096f565b92915050565b600081519050919050565b600082825260208201905092915050565b6000819050602082019050919050565b6109ce816107b8565b82525050565b6040820160008201516109ea60008501826109c5565b5060208201516109fd60208501826109c5565b50505050565b6000610a0f83836109d4565b60408301905092915050565b6000602082019050919050565b6000610a3382610999565b610a3d81856109a4565b9350610a48836109b5565b8060005b83811015610a79578151610a608882610a03565b9750610a6b83610a1b565b925050600181019050610a4c565b5085935050505092915050565b60006060830160008301518482036000860152610aa38282610a28565b9150506020830151610ab860208601826109c5565b506040830151610acb60408601826109c5565b508091505092915050565b60006020820190508181036000830152610af08184610a86565b905092915050565b600080fd5b6000601f19601f8301169050919050565b7f4e487b7100000000000000000000000000000000000000000000000000000000600052604160045260246000fd5b610b4682610afd565b810181811067ffffffffffffffff82111715610b6557610b64610b0e565b5b80604052505050565b6000610b786107a4565b9050610b848282610b3d565b919050565b600067ffffffffffffffff821115610ba457610ba3610b0e565b5b602082029050602081019050919050565b600080fd5b6000610bcd610bc884610b89565b610b6e565b90508083825260208201905060208402830185811115610bf057610bef610bb5565b5b835b81811015610c195780610c0588826107d9565b845260208401935050602081019050610bf2565b5050509392505050565b600082601f830112610c3857610c37610af8565b5b8135610c48848260208601610bba565b91505092915050565b600080600060608486031215610c6a57610c696107ae565b5b6000610c78868287016107d9565b935050602084013567ffffffffffffffff811115610c9957610c986107b3565b5b610ca586828701610c23565b9250506040610cb6868287016107d9565b9150509250925092565b7f4e487b7100000000000000000000000000000000000000000000000000000000600052601160045260246000fd5b6000610cfa826107b8565b91507fffffffffffffffffffffffffffffffffffffffffffffffffffffffffffffffff8203610d2c57610d2b610cc0565b5b600182019050919050565b7f4e487b7100000000000000000000000000000000000000000000000000000000600052603260045260246000fd5b6000610d71826107b8565b9150610d7c836107b8565b9250828201905080821115610d9457610d93610cc0565b5b9291505056fea2646970667358221220b3d5f211621956a28987aace2c963f264dd57da8eb32f438d313f170d63d442064736f6c63430008140033",
  "immutableReferences": {
    "9": [
      {
        "length": 32,
        "start": 871
      }
    ]
  },
  "source": "// SPDX-License-Identifier: MIT\r\npragma solidity ^0.8.20;\r\n\r\n// Importacin de la interfaz ERC2771Context\r\nimport \"@openzeppelin/contracts/metatx/ERC2771Context.sol\";\r\n\r\n// Declaracin del contrato que utiliza ERC2771Forwarder\r\ncontract EasyVote is ERC2771Context {\r\n    \r\n    // Estructura para representar un voto\r\n    struct Voto {\r\n        uint256 votante;\r\n        uint256[] candidatos;\r\n        uint256 procesoElectoral;\r\n    }\r\n\r\n    // Estructura para representar el resultado de un candidato y sus votos\r\n    struct CandidatoVotos {\r\n        uint256 candidato;\r\n        uint256 votos;\r\n    }\r\n\r\n    // Estructura para representar el resultado de un proceso electoral\r\n    struct ResultadoProcesoElectoral {\r\n        CandidatoVotos[] candidatosVotos;\r\n        uint256 votosEnBlanco;\r\n        uint256 votosNulos;\r\n    }\r\n    \r\n    // Mapeo para almacenar los votos por ndice\r\n    mapping(uint256 => mapping(uint256 => Voto)) public votos;\r\n    // Mapeo para contar los votos por candidato en cada proceso electoral\r\n    mapping(uint256 => mapping(uint256 => uint256)) public votosPorCandidato; // votosPorCandidato[procesoElectoral][candidato] = count\r\n    // Mapeo para contar votos en blanco por proceso electoral\r\n    mapping(uint256 => uint256) public votosEnBlanco; // votosEnBlanco[procesoElectoral] = count\r\n    // Mapeo para contar votos nulos por proceso electoral\r\n    mapping(uint256 => uint256) public votosNulos; // votosNulos[procesoElectoral] = count\r\n    \r\n    // Constructor para inicializar el forwarder\r\n    constructor(address trustedForwarder) ERC2771Context(trustedForwarder) {}\r\n    \r\n    // Funcin para registrar un voto\r\n    function registrarVoto(uint256 _votante, uint256[] memory _candidatos, uint256 _procesoElectoral) public {\r\n        _registerVoto(_votante, _candidatos, _procesoElectoral);\r\n    }\r\n    \r\n    // Funcin interna para registrar un voto\r\n    function _registerVoto(uint256 _votante, uint256[] memory  _candidatos, uint256 _procesoElectoral) internal {\r\n        votos[_votante][_procesoElectoral] = Voto(_votante, _candidatos, _procesoElectoral);\r\n\r\n        // Contabilizar el voto segn sea en blanco, nulo o vlido\r\n        if (_candidatos.length == 0) {\r\n            votosEnBlanco[_procesoElectoral] += 1;\r\n        } else if (_candidatos.length > 1) {\r\n            votosNulos[_procesoElectoral] += 1;\r\n        } else {\r\n            votosPorCandidato[_procesoElectoral][_candidatos[0]] += 1;\r\n        }\r\n    }\r\n\r\n    // Funcin para obtener el nmero de votos por candidato en un proceso electoral\r\n    function obtenerVotosPorCandidato(uint256 _procesoElectoral, uint256 _candidato) public view returns (uint256) {\r\n        return votosPorCandidato[_procesoElectoral][_candidato];\r\n    }\r\n    \r\n    // Funcin para obtener el nmero de votos en blanco en un proceso electoral\r\n    function obtenerVotosEnBlanco(uint256 _procesoElectoral) public view returns (uint256) {\r\n        return votosEnBlanco[_procesoElectoral];\r\n    }\r\n    \r\n    // Funcin para obtener el nmero de votos nulos en un proceso electoral\r\n    function obtenerVotosNulos(uint256 _procesoElectoral) public view returns (uint256) {\r\n        return votosNulos[_procesoElectoral];\r\n    }\r\n\r\n    // Funcin para obtener el resultado completo de un proceso electoral\r\n    function obtenerResultadoProcesoElectoral(uint256 _procesoElectoral) public view returns (ResultadoProcesoElectoral memory) {\r\n        // Crear un array temporal para almacenar candidatos y sus votos\r\n        CandidatoVotos[] memory candidatosVotos;\r\n\r\n        // Contar el nmero de candidatos\r\n        uint256 count = 0;\r\n        for (uint256 i = 0; i < 256; i++) {\r\n            if (votosPorCandidato[_procesoElectoral][i] > 0) {\r\n                count++;\r\n            }\r\n        }\r\n\r\n        // Inicializar el array con el tamao correcto\r\n        candidatosVotos = new CandidatoVotos[](count);\r\n\r\n        // Rellenar los arrays con los datos de los candidatos y sus votos\r\n        uint256 index = 0;\r\n        for (uint256 i = 0; i < 256; i++) {\r\n            if (votosPorCandidato[_procesoElectoral][i] > 0) {\r\n                candidatosVotos[index] = CandidatoVotos({\r\n                    candidato: i,\r\n                    votos: votosPorCandidato[_procesoElectoral][i]\r\n                });\r\n                index++;\r\n            }\r\n        }\r\n\r\n        // Crear y devolver la estructura con el resultado del proceso electoral\r\n        return ResultadoProcesoElectoral({\r\n            candidatosVotos: candidatosVotos,\r\n            votosEnBlanco: votosEnBlanco[_procesoElectoral],\r\n            votosNulos: votosNulos[_procesoElectoral]\r\n        });\r\n    }\r\n}",
  "sourcePath": "C:\\Users\\josea\\Documents\\Github\\ease-vote-backend\\contracts\\EasyVote.sol",
  "compiler": {
    "name": "solc",
    "version": "0.8.20+commit.a1b79de6.Emscripten.clang"
  },
  "schemaVersion": "3.4.16",
  "updatedAt": "2024-06-10T22:50:49.126Z",
  "networkType": "ethereum",
  "devdoc": {
    "kind": "dev",
    "methods": {
      "isTrustedForwarder(address)": {
        "details": "Indicates whether any particular address is the trusted forwarder."
      },
      "trustedForwarder()": {
        "details": "Returns the address of the trusted forwarder."
      }
    },
    "version": 1
  },
  "userdoc": {
    "kind": "user",
    "methods": {},
    "version": 1
  }
}